:100000000C9413020C942B090C9400090C94D50841
:100010000C94AA080C947F080C9454080C9429089A
:100020000C94FE070C9444020C9444020C94440279
:100030000C9444020C9444020C9444020C94440228
:100040000C9444020C9462100C9444020C944402EC
:100050000C9444020C9444020C9444020C94BF147B
:100060000C9444020C94D4090C94AA090C944402F4
:100070000C9444020C9444020C9444020C944402E8
:100080000C9434100C9444020C9444020C944402DA
:100090000C9444020C9444020C9444020C9490106E
:1000A0000C9444020C9444020C9406100C944402E8
:1000B0000C9444020C9444020C9444020C94D80F07
:1000C0000C9444020C9444020C9444020C94440298
:1000D0000C9444020C9444020C9480090C9456092C
:1000E0000C944402A004A504AA04B404BE04370579
:1000F000C804D004D804E204EC04F60405050F0596
:100100003705190523052D056619E019E019E019D1
:100110004E198D199E19BE19CA19E0197C19E019DA
:10012000E019E019E019E019AD193C0F430F200F59
:10013000270F2E0F350F4A0F510FE913EC13DB1366
:10014000DF13E5132314F013F413FA13FE13021450
:1001500008140C141014231416141A141E140C94DE
:10016000BE040C940C040C94270F0C943C0F0C94BC
:1001700023140C94E2040C9401030C94B7150C9412
:100180004A0D0C94CA190C9444060C9445040C9422
:1001900047020C9471070C9449050C9405050C94C6
:1001A000FF090C949E190C940A040C94FE090C94FB
:1001B000810E0C94DB130C949F030C94D3150C94B8
:1001C00043040C94F0130C94A0040C944D040C9470
:1001D00023050C940F050C94FE130C94D0040C947E
:1001E00049040C94480D0C94B2020C94FA130C942C
:1001F000010A0C94AA040C949F130C94D8040C9438
:1002000026150C94D11B0C9446020C94C0020C943D
:10021000E9130C9408140C94EC040C9410140C9432
:10022000E0190C944E190C94040A0C94BE190C9409
:100230006F130C942E0F0C9409150C94EC130C9462
:1002400018150C94720E0C9438060C949E020C94A3
:10025000F6040C948F020C94510F0C94070A0C9422
:1002600047040C941E140C94350F0C948C020C94BF
:10027000E5130C94C8040C94BA150C945F0E0C94FE
:10028000AD190C947C190C9423040C940D040C945B
:10029000020A0C94B4040C944A0F0C9419050C94A3
:1002A00075070C94200F0C948D190C9416140C9453
:1002B000D0150C94DF130C941A140C9437050C947D
:1002C0000B040C940E040C94490D0C944B040C94E8
:1002D00048030C946D070C940C140C944F040C946C
:1002E000000A0C940F040C94430F0C94710E0C94A0
:1002F0002D050C9466190C9402140C94A5040C940E
:10030000F413000020002300260029002C002F00F9
:100310003200000100000301060109010000220073
:10032000250028002B002E003100340002010000BF
:10033000050108010B0100002100240027002A000C
:100340002D003000330001010000040107010A0103
:1003500005050505070508080808020202020A0A41
:10036000080804040404010101010101010103035F
:10037000030303030303040707070C0C0C0C0C0C0A
:100380000C0C0202020206060606060606060B0B07
:100390000B0B0B0B0B0B0102102020080810204048
:1003A0001020408002010201080402010102040839
:1003B00010204080804020100804020180040201C7
:1003C0008040201008040201080402010102040810
:1003D00010204080010204081020408000000A0B19
:1003E00002090C0D0E0807030401000000000000C4
:1003F00000000000000000000000000000000000FD
:1004000000000000000000001211100000000000B9
:1004100000000000000000000000000000000000DC
:100420000000D11BD31511241FBECFEFD1E2DEBFD8
:10043000CDBF00E00CBF12E0A0E0B2E0E6E2F5E4E0
:1004400000E00BBF02C007900D92AC3BB107D9F79B
:1004500026E0ACEBB2E001C01D92AD35B207E1F78A
:1004600012E0C2E1D2E000E006C021970109802F2E
:10047000FE010E942D20C131D10780E00807A9F7B5
:100480000E94D4150C9481220C9400000895CF9200
:10049000DF92EF92FF920F931F93CF93DF936C0144
:1004A0007A018B01C0E0D0E0CE15DF0589F0D801DC
:1004B0006D918D01D601ED91FC910190F081E02DBF
:1004C000C6011995892B11F47E0102C02196ECCF4B
:1004D000C701DF91CF911F910F91FF90EF90DF90B7
:1004E000CF900895FC01A089B1898C91A689B78924
:1004F00082FD0FC09C91818D8F5F8F73228D82173B
:1005000049F0218DDF01A20FB11D5D969C93818F73
:1005100008958C910895089580E090E00895FC017D
:10052000538D448D252F30E0842F90E0821B930B58
:10053000541710F0CF96089501970895FC01918DFE
:10054000828D981761F0828DDF01A80FB11D5D9635
:100550008C91928D9F5F9F73928F90E008958FEFA3
:100560009FEF0895FC01918D828D981731F0828D57
:10057000E80FF11D858D90E008958FEF9FEF0895AE
:10058000FC01918D228D892F90E0805C9F4F821B12
:1005900091098F739927089585E394E00E94C00222
:1005A00021E0892B09F420E0822F089582ED94E068
:1005B0000E94C00221E0892B09F420E0822F0895D7
:1005C000FC01848DDF01A80FB11DA35ABF4F2C91F0
:1005D000848D90E001968F739927848FA689B789BF
:1005E0002C93A089B1898C9180648C93938D848D98
:1005F000981306C00288F389E02D80818F7D808367
:100600000895EF92FF920F931F93CF93DF93EC0126
:1006100081E0888F9B8D8C8D981305C0E889F989BE
:10062000808185FD24C0F62E0B8D10E00F5F1F4FDB
:100630000F731127E02E8C8DE8120CC00FB607FC4B
:10064000FACFE889F989808185FFF5CFCE010E9434
:10065000E002F1CF8B8DFE01E80FF11DE35AFF4F51
:10066000F0820B8FEA89FB898081806207C0EE8966
:10067000FF896083E889F98980818064808381E0D3
:1006800090E0DF91CF911F910F91FF90EF9008952F
:10069000CF93DF93EC01888D8823C9F0EA89FB8929
:1006A000808185FD05C0A889B9898C9186FD0FC020
:1006B0000FB607FCF5CF808185FFF2CFA889B989F5
:1006C0008C9185FFEDCFCE010E94E002E7CFDF9154
:1006D000CF91089580E090E0892B21F00E94D6020E
:1006E000811121C080E090E0892B41F080E090E012
:1006F000892B21F00E940000811118C080E090E059
:10070000892B41F080E090E0892B21F00E940000CD
:1007100081110FC080E090E0892B81F00E94CC0213
:1007200081110AC008950E940000DCCF0E940000E1
:10073000E5CF0E940000EECF0C94000008950895CC
:100740008F929F92AF92BF92CF92DF92EF92FF92E1
:10075000FC01AB01608571854C398FEF580754F06F
:10076000DA014536510514F0A4E6B0E01A161B066E
:100770005CF102C0ACE9BFEF80889188092C000CC5
:10078000AA08BB08CD01BB0FAA0BBB0B9C01AD0196
:100790002C593F4F4F4F5F4FCB01770FAA0BBB0B2D
:1007A000BC01CD01681979098A099B090E94F51FCE
:1007B00024E630E040E050E00E94921F820E931E3B
:1007C000A41EB51EC4011DC06B01770FEE08FF0803
:1007D00086849784092C000CAA08BB08A501940103
:1007E0002C193D094E095F090E94BC1F24E630E028
:1007F00040E050E00E94921FC20ED31EE41EF51E80
:10080000C601FF90EF90DF90CF90BF90AF909F9088
:100810008F90089508950895089508950895FC010E
:1008200084E690E09583848397838683118610867F
:100830008FEF90E09387828781E09FEF9587848791
:100840001382128208950895FC01A281B3811C963F
:100850002D913C911D97621773074CF01A964D919C
:100860005C911B979B01461757070CF49A01FC01FA
:1008700031872087ED91FC9111970680F781E02D5B
:10088000B901CD0119940E947C220C94E4210C94AE
:10089000E4210C94E4210C94E4210C94E4210C94C4
:1008A000E421CF93DF93EC0160E088810E9424145F
:1008B00060E08A81DF91CF910C942414CF93DF9371
:1008C000EC016115710549F06130710581F461E059
:1008D00088810E94241460E005C060E088810E9445
:1008E000241461E08A81DF91CF910C942414DF916C
:1008F000CF910C9451040F931F93CF93DF93EB018F
:10090000FC0104811581802F0E94B90F209709F402
:10091000B1C0CF3FD10509F4AFC0F801FF27E452C1
:10092000FC4FE4914E2F50E0FA013197E231F1058E
:1009300008F09DC08827EE58FF4F8F4F0C942D2054
:1009400084B5806884BDC7BD9FC084B5806284BD06
:10095000C8BD9AC080918000806880938000D09349
:100960008900C093880090C080918000806280934D
:100970008000D0938B00C0938A0086C08091800055
:10098000886080938000D0938D00C0938C007CC0E1
:100990008091B00080688093B000C093B30074C0B1
:1009A0008091B00080628093B000C093B4006CC0AE
:1009B00080919000806880939000D0939900C093BC
:1009C000980062C080919000806280939000D093E4
:1009D0009B00C0939A0058C08091900088608093DB
:1009E0009000D0939D00C0939C004EC08091A000C9
:1009F00080688093A0008091A0008F7B8093A000EE
:100A0000D093A900C093A8003FC08091A00080624D
:100A10008093A000D093AB00C093AA0035C0809112
:100A2000A00088608093A000D093AD00C093AC007C
:100A30002BC080912001806880932001D0932901F0
:100A4000C093280121C08091200180628093200101
:100A5000D0932B01C0932A0117C080912001886098
:100A600080932001D0932D01C0932C010DC0C0387C
:100A7000D10514F460E001C061E0802FDF91CF91D7
:100A80001F910F910C942414DF91CF911F910F911E
:100A90000895CF92DF92EF92FF920F931F93CF931F
:100AA000DF93EC018A010E94A0037C01B801CE0112
:100AB0000E94A0038C01CE0180966C01F7FE03C05A
:100AC00060E070E002C061E070E00E945E04B70187
:100AD000F7FE03C0719561957109C6010E947B0400
:100AE000A69617FF03C060E070E002C061E070E00E
:100AF000CE010E945E04B80117FF03C07195619595
:100B00007109CE01DF91CF911F910F91FF90EF906E
:100B1000DF90CF900C947B044F925F926F927F9204
:100B20008F929F92AF92BF92CF92DF92EF92FF92FD
:100B30000F931F93CF93DF9300D01F92CDB7DEB7F3
:100B40008C01FC01828193819801205E3F4F6901F5
:100B5000B6967F0197FF08C060E070E0C9010E946F
:100B60005E0460E070E009C0892B59F061E070E03C
:100B7000C9010E945E0461E070E0C7010E945E044A
:100B800006C0C9010E945104C7010E945104F80126
:100B90008280938097FE03C0919481949108F8011C
:100BA000A688B78804891589C501801B910B97FF1A
:100BB00003C0919581959109B501681B790B80E07F
:100BC00090E00E94731E2B013C01B50180E090E093
:100BD0000E94731E9B01AC01C301B2010E94A220BE
:100BE0009B01AC012401612C712CA016B106A8F464
:100BF000B401C60129833A834B835C830E947B0442
:100C0000C301B2010E94731E29813A814B815C812C
:100C10000E94D41E0E94142114C0C301B201298372
:100C20003A834B835C830E94731E29813A814B81F6
:100C30005C810E94D41E0E941421C6010E947B0484
:100C4000B401C7010F900F900F900F90DF91CF91DB
:100C50001F910F91FF90EF90DF90CF90BF90AF90DA
:100C60009F908F907F906F905F904F900C947B043B
:100C7000CF93DF93EC010E94A0039B838A83CE0174
:100C8000DF91CF910C948C050F931F93CF93DF933B
:100C9000EC01EE81FF8190818C8180958923808396
:100CA0008BE090E00197F1F7EE81FF8190818C81DC
:100CB000892B808383E290E00197F1F7EE81FF8139
:100CC00090818C818095892380830E945414DC015B
:100CD000CB018855994EAF4FBF4F8E879F87A88B0A
:100CE000B98BEA85FB8590818D81892359F00E941B
:100CF00054140E851F852889398906171707280778
:100D0000390778F7EA85FB8590818D81892371F415
:100D10000E9454140E851F852889398906171707E4
:100D20002807390778F760E070E030C00E9454145B
:100D30002C853D85DC01CB01820F931FA11DB11DC8
:100D40008E879F87A88BB98BEA85FB8590818D81E3
:100D5000892381F00E9454140E851F8528893989C2
:100D6000061717072807390778F760E070E020E0DA
:100D700030E014C00E9454142C853D852550310963
:100D80004E855F85241B350B620F731F91E080E059
:100D90006115710509F490E0292F382FCB014C968D
:100DA00069E370E00E940520CB016217730708F425
:100DB000C901DF91CF911F910F910895CF92DF92DA
:100DC000EF92FF920F931F93CF93DF93EC010E945A
:100DD00054148E01000F111F000F111FF801EC5366
:100DE000FD4FC080D180E280F3809B01AC012C19C3
:100DF0003D094E095F0969017A013DEBC31632E0F6
:100E0000D306E104F10408F45FC0D801A454BD4F37
:100E1000CD92DD92ED92FC92139760837183828371
:100E20009383F801EC52FD4F80819181A281B381BF
:100E30000196A11DB11D80839183A283B383FE011E
:100E4000EE0FFF1FE159FA4F208131812F3F31050D
:100E500009F43AC03327F901E452FC4F8491F901B7
:100E6000EA56FC4FE490F901E05BFC4FF490FF2060
:100E7000A1F081110E94CE13EF2DF0E0EE0FFF1FC5
:100E8000EE5FFC4FA591B491EC91EE2131E020E0B2
:100E900009F430E0832F922F02C080E090E0CA5E18
:100EA000DD4F288130E08217930771F0F801E45399
:100EB000FD4F80819181A281B3810196A11DB11D59
:100EC00080839183A283B383DF91CF911F910F9190
:100ED000FF90EF90DF90CF90089581E090E00C9428
:100EE000DE0680E090E00C94DE068F929F92AF9237
:100EF000BF92CF92DF92EF92FF920F931F93CF9307
:100F0000DF93EC010E94B314C884D984EA84FB8483
:100F1000AB01BC014C195D096E097F098E819F816F
:100F2000A0E0B0E084179507A607B70708F059C0FE
:100F30008DE20E94580FF82E8CE20E94580F1F2D50
:100F400000E0082B6C857D85601B710BCB0177FF62
:100F500004C088279927861B970B0D977CF0072ED6
:100F6000000C880B990B0E94751E29E23CE54FE8A6
:100F70005DE30E94D41E4B015C0103C0812C912CC7
:100F800054010E94B3146B017C0188859985AA8560
:100F9000BB85A7019601281B390B4A0B5B0BCA01C5
:100FA000B9010E94731E9B01AC0160E070E08AE70A
:100FB00094E40E94A2209B01AC01C501B4010E94EF
:100FC000A2209B01AC016A817B818C819D810E9462
:100FD00036206A837B838C839D83C886D986EA8684
:100FE000FB86DF91CF911F910F91FF90EF90DF90E3
:100FF000CF90BF90AF909F908F9008951F920F92C7
:101000000FB60F9211240BB60F922F933F934F936D
:101010005F936F937F938F939F93AF93BF93EF9360
:10102000FF93E0910E02F0910F021995FF91EF915D
:10103000BF91AF919F918F917F916F915F914F91F0
:101040003F912F910F900BBE0F900FBE0F901F90EE
:1010500018951F920F920FB60F9211240BB60F9294
:101060002F933F934F935F936F937F938F939F93B0
:10107000AF93BF93EF93FF93E0910C02F0910D02B9
:101080001995FF91EF91BF91AF919F918F917F91B2
:101090006F915F914F913F912F910F900BBE0F90E9
:1010A0000FBE0F901F9018951F920F920FB60F92C0
:1010B00011240BB60F922F933F934F935F936F932F
:1010C0007F938F939F93AF93BF93EF93FF93E091A1
:1010D0000202F09103021995FF91EF91BF91AF9138
:1010E0009F918F917F916F915F914F913F912F9140
:1010F0000F900BBE0F900FBE0F901F9018951F9270
:101100000F920FB60F9211240BB60F922F933F93AD
:101110004F935F936F937F938F939F93AF93BF93FF
:10112000EF93FF93E0910002F09101021995FF9176
:10113000EF91BF91AF919F918F917F916F915F914F
:101140004F913F912F910F900BBE0F900FBE0F90BC
:101150001F9018951F920F920FB60F9211240BB685
:101160000F922F933F934F935F936F937F938F9340
:101170009F93AF93BF93EF93FF93E0910A02F09197
:101180000B021995FF91EF91BF91AF919F918F91B4
:101190007F916F915F914F913F912F910F900BBE77
:1011A0000F900FBE0F901F9018951F920F920FB6C1
:1011B0000F9211240BB60F922F933F934F935F938F
:1011C0006F937F938F939F93AF93BF93EF93FF930F
:1011D000E0910802F09109021995FF91EF91BF91FA
:1011E000AF919F918F917F916F915F914F913F91BF
:1011F0002F910F900BBE0F900FBE0F901F90189560
:101200001F920F920FB60F9211240BB60F922F93CD
:101210003F934F935F936F937F938F939F93AF937E
:10122000BF93EF93FF93E0910602F09107021995A7
:10123000FF91EF91BF91AF919F918F917F916F91AE
:101240005F914F913F912F910F900BBE0F900FBE6A
:101250000F901F9018951F920F920FB60F921124A6
:101260000BB60F922F933F934F935F936F937F93A0
:101270008F939F93AF93BF93EF93FF93E0910402FB
:10128000F09105021995FF91EF91BF91AF919F9158
:101290008F917F916F915F914F913F912F910F901F
:1012A0000BBE0F900FBE0F901F9018951F920F92BC
:1012B0000FB60F9211240BB60F922F933F934F93BB
:1012C0005F936F937F938F939F93AF93BF93EF93AE
:1012D000FF9385E394E00E94E002FF91EF91BF91BC
:1012E000AF919F918F917F916F915F914F913F91BE
:1012F0002F910F900BBE0F900FBE0F901F9018955F
:101300001F920F920FB60F9211240BB60F922F93CC
:101310003F934F935F936F937F938F939F93AF937D
:10132000BF93EF93FF9385E394E00E947202FF91D5
:10133000EF91BF91AF919F918F917F916F915F914D
:101340004F913F912F910F900BBE0F900FBE0F90BA
:101350001F9018951F920F920FB60F9211240BB683
:101360000F922F933F934F935F936F937F938F933E
:101370009F93AF93BF93EF93FF9382ED94E00E940E
:10138000E002FF91EF91BF91AF919F918F917F917B
:101390006F915F914F913F912F910F900BBE0F90E6
:1013A0000FBE0F901F9018951F920F920FB60F92BD
:1013B00011240BB60F922F933F934F935F936F932C
:1013C0007F938F939F93AF93BF93EF93FF9382EDA0
:1013D00094E00E947202FF91EF91BF91AF919F91B3
:1013E0008F917F916F915F914F913F912F910F90CE
:1013F0000BBE0F900FBE0F901F9018950895089583
:10140000089508950C94E42142970C94020A0895DB
:10141000CF93DF93DC01FB01EA56FC4F84911496D5
:101420008C931497FA01EA56FC4FE4911596EC93CD
:101430001597605B7C4FFB019491E92FF0E0EE0F74
:10144000FF1FE45EFC4F2591349117963C932E9339
:101450001697FA01E05BFC4F249130E0220F331F16
:101460002E5F3C4FF901459154911B965C934E932E
:101470001A97FB016491E62FF0E0EE0FFF1FEA5C84
:10148000FC4FC591D4911996DC93CE931897529640
:101490004D915C91539799E3949F9001959F300DE6
:1014A0001124245E3F4F1D963C932E931C97E88198
:1014B0008E2B8883DF91CF910895CF92DF92EF92A8
:1014C000FF92CF93DF93EC01EE81FF81EE0FFF1FC0
:1014D000EE0FFF1FEC52FD4F60817181828193817D
:1014E0000E94731E6B017C01688179818A819B81D6
:1014F0000E94731E20E030E048EC52E40E94A220DB
:101500009B01AC01C701B6010E94A2200E941B21D1
:10151000DF91CF91FF90EF90DF90CF9008952F92C1
:101520003F924F925F926F927F928F929F92AF9273
:10153000BF92CF92DF92EF92FF920F931F93CF93C0
:10154000DF93CDB7DEB72A970FB6F894DEBF0FBE94
:10155000CDBF9A8789871A018B01DC0199968C91FE
:101560009997882309F4A3C01A968D909D90AD9009
:10157000BC901D9720E030E0A901C501B4010E9494
:101580004A2118165CF42FE632E143E85AE3C5011C
:10159000B4010E946E1E87FF0CC04BC02FE632E1E3
:1015A00043E85AEBC501B4010E944A2118160CF415
:1015B00040C0A5019401B101C8010E94D41E20E0E1
:1015C00030E0A9010E946E1E18169CF1E985FA858B
:1015D0008681978120E030E0A901892B09F04BC179
:1015E000C501B4010E944A2118160CF0A6C02FE6CE
:1015F00032E143E85AE3C501B4010E946E1E87FF41
:10160000A7C0A985BA8599968C9199978111BAC07E
:10161000E985FA8512861386148615868081918164
:10162000DC01ED91FC910680F781E02D60E070E037
:10163000199520E030E040E450ECB101C8010E946F
:101640006E1E87FD0FC020E030E040E450E4B101A1
:10165000C8010E944A2118164CF4212C312C00E4B8
:1016600010E404C0212C312C00E410ECC101D8019D
:10167000E985FA8582879387A487B5872A960FB66E
:10168000F894DEBF0FBECDBFDF91CF911F910F91B8
:10169000FF90EF90DF90CF90BF90AF909F908F9092
:1016A0007F906F905F904F903F902F900895BA0178
:1016B000C8010E9414216C39FFEF7F0764F0653682
:1016C000710514F064E670E0072E000C880B990B8E
:1016D0000E94751E04C060E070E088EC92ECA98561
:1016E000BA851A966D937D938D939C931D97ED907B
:1016F000FC90F701008111810E941421D8011696F7
:10170000ED91FC911797C7012A960FB6F894DEBFAA
:101710000FBECDBFDF91CF911F910F91FF90EF9042
:10172000DF90CF90BF90AF909F908F907F906F9001
:101730005F904F903F902F9019942FE632E143E84D
:101740005AEBC501B4010E944A2118160CF459CF76
:10175000E985FA85E080F180D701CD90DC90C50164
:10176000B40190580E941421D6011696ED91FC9177
:101770001797C701199560E570E080E090E00E943E
:1017800079143FCF5A962D913D914D915C915D9783
:1017900029833A834B835C8356962D913D914D91DD
:1017A0005C9159972D833E834F83588752964D9075
:1017B0005D906D907C90559716968D919C911797A2
:1017C000892B09F425CF81E099968C93999780E530
:1017D00090E015969C938E931497FD0112A613A684
:1017E00014A615A6D2961D921D921D921C92D597F5
:1017F0006D01B2E2CB0ED11CE12CF12C812C912C8D
:101800005401E985FA8586819781E816F906C0F4C6
:10181000F601819191916F010E945D0AA985BA85B7
:1018200016962D913C91179740E050E00E94C41FFE
:10183000820E931EA41EB51EBFEFEB1AFB0AE1CF6A
:1018400086A697A6A0AAB1AA11AE10AE428A538A64
:10185000648A758A2D813E814F815885268B378B0E
:10186000408F518F29813A814B815C81228F338F48
:10187000448F558FCDCEC501B4010E944A21181660
:101880005CF42FE632E143E85AE3C501B4010E945B
:101890006E1E87FF0CC0B5CE2FE632E143E85AEB4F
:1018A000C501B4010E944A2118160CF4AACEE9859C
:1018B000FA85C684D784E088F18820E030E0A90169
:1018C000C701B6010E944A2118165CF42FE632E1E6
:1018D00043E85AE3C701B6010E946E1E87FF0CC0A1
:1018E00090CE2FE632E143E85AEBC701B6010E94E1
:1018F0004A2118160CF485CE83E0E82EF12C898459
:101900009A84F2E28F0E911CA985BA85AD90BC90A5
:101910001197F501C080D180D2968D919D910D9047
:10192000BC91A02DBC01CD0190580E941421D6017C
:101930001696ED91FC911797C5011995E985FA85E1
:101940006481758180E090E00E947914F1E0EF1AE3
:10195000F10809F456CE5401C12CD12C412C512C44
:101960003201A985BA8516968D919C911797C81654
:10197000D906B0F4D5018D919D915D010E945D0A5B
:10198000E985FA852681378140E050E00E94C41F36
:10199000420E531E641E751EFFEFCF1ADF0AE1CF01
:1019A0009E968D919D910D90BC91A02D6301520149
:1019B000A81AB90ACA0ADB0AE985FA8546A657A613
:1019C00060AA71AA0E94B3142B013C01C601B501A3
:1019D0000E94731E20E030E040E251E40E94D41ED9
:1019E0005B016C01E985FA8582A593A5A4A5B5A53F
:1019F000A3019201281B390B4A0B5B0BCA01B901E9
:101A00000E94731E9B01AC01C601B5010E94A22079
:101A10002AE037ED43EA5CE30E944A2118160CF4F1
:101A200073CFEFCDFC016230710569F06330710551
:101A300069F0CB014297049760F427E130E0C901D7
:101A4000861B970B08C080E090E005C081E090E025
:101A500002C08FEF9FEF958384838F3F2FEF920714
:101A600089F0268137812230310578F4232B19F44F
:101A700061E777E002C06DE677E00E940D0F81E03C
:101A800090E0089580E090E008958FEF9FEF089533
:101A9000089508950895CF93DF93EC01EA81FB81C7
:101AA000EE5AFF4F62817381848195810E941421D7
:101AB000CB0168E671E00E94192097FF02C08859A7
:101AC0009E4F9F838E8381E08B87DF91CF91089516
:101AD000CF93DF93EC0160E070E0888199810E94F0
:101AE000240440E050E0BA0188819981DF91CF91D0
:101AF0000C948F0A0F931F93CF93DF93EC0188818F
:101B00009981FC0112860E94680D188619861A8632
:101B10001B861C868A819B81FC01EC57FF4F10823B
:101B2000DC01A459BF4F7C970D911D912D913C91E3
:101B30004081518162817381400F511F621F731F69
:101B400076956795579547953C9640835183628378
:101B5000738334964083518362837383DF91CF9183
:101B60001F910F910895FC0160857185808191819D
:101B7000FC01208531856217730711F00C94240451
:101B800008954F925F926F927F928F929F92AF9241
:101B9000BF92EF92FF920F931F93CF93DF937C013D
:101BA000EB01FC01518740870E94B30DF701D583FB
:101BB000C48300811181F801428453846484758454
:101BC00020E030E0A901C301B2010E946E1E88230B
:101BD00081F0BE010D2E000C880B990B0E94751E22
:101BE0004B015C01A30192010E946E1E87FD4AC059
:101BF00005C0209719F0C436D10551F5F70164816D
:101C00007581072E000C880B990B0E94751E4B01E5
:101C10005C01F70100811181F8012285338544853B
:101C200055850E946E1E8823D9F1B501A401C80113
:101C3000DF91CF911F910F91FF90EF90BF90AF90E8
:101C40009F908F907F906F905F904F900C948F0A31
:101C5000CC39FFEFDF0791F21C161D062CF440E093
:101C600050E068EC72E404C040E050E068EC72ECD4
:101C7000C8010E948F0A6AE070E080E090E00E9454
:101C80007914BCCF209789F2C436D10509F764E6F0
:101C900070E080E090E00E94751E4B015C01C5CFB2
:101CA000DF91CF911F910F91FF90EF90BF90AF9078
:101CB0009F908F907F906F905F904F90089580914C
:101CC000E10290E02091E202821B9109089585EDE6
:101CD0008093BC008091BC0084FDFCCF1092040472
:101CE00008950895E091E2028091E102E81730F44E
:101CF000F0E0E254FC4F808190E008958FEF9FEF79
:101D000008959091E2028091E102981750F4E92F32
:101D1000F0E0E254FC4F208130E09F5F9093E202BC
:101D200002C02FEF3FEFC9010895CF93DF93DB018E
:101D3000EA01FC01E654FC4F208127FF04C0119604
:101D40001C921E920DC040815CE0589F9001599FEB
:101D5000300D1124240F311D47FD3A9537FD2081A8
:101D600020812F5F20834CE0489F9001499F300DD8
:101D700011248081A901480F511D87FD5A9557FFF5
:101D80001EC080818C30DCF44D915C918081B90162
:101D9000680F711D87FD7A95CB01DB01AA0FBB1F70
:101DA0008A0F9B1FDC01A65DBC4F11968D919C9103
:101DB0001297840F951F99838883808111C08D911C
:101DC0009C911197049680349C4918F480E49CE916
:101DD00003C08D919C910496998388838FEF8083B3
:101DE000DF91CF910895CF93C62F91E09093050492
:101DF00099E6909327041092060410922804682F05
:101E000089E294E00E949F136C2F89E294E00E9483
:101E10009F1381E0CF910C941213E82FF0E0EE0FA6
:101E2000FF1FE050FE4F7183608390E08830910582
:101E3000F0F5FC018827EB56FF4F8F4F0C942D20B7
:101E400080916900836080936900E89A0895809189
:101E500069008C6080936900E99A08958091690017
:101E6000806380936900EA9A089580916900806C8C
:101E700080936900EB9A089580916A008360809353
:101E80006A00EC9A089580916A008C6080936A00E1
:101E9000ED9A089580916A00806380936A00EE9ABB
:101EA000089580916A00806C80936A00EF9A08958B
:101EB00091E09093050499E690932704109206040C
:101EC00010922804682F89E294E00E949F1381E019
:101ED0000E941213809104048111FCCF81E0809351
:101EE0000404809303049FEF909302041092010472
:101EF000109200048093DF038091DF03826D809352
:101F0000DF038091DE03813061F41092DE03809163
:101F1000DF038093BB008091BC0083FDF8CF85EC8C
:101F200001C085EE8093BC00809104048130E1F310
:101F300080910104811103C08091010401C081E0FE
:101F4000A0EEB3E02EEB33E0F9019E2F921B981721
:101F500018F49D919193F9CF1092E2028093E102DF
:101F6000882321F089E294E00C94810E8FEF9FEF9B
:101F7000089590E0FC01EA56FC4F2491FC01E05BDF
:101F8000FC4F8491882399F090E0880F991FFC0101
:101F9000EA5CFC4FA591B491FC01E45EFC4F859195
:101FA00094918FB7F894EC91E22BEC938FBF089546
:101FB0001F920F920FB60F9211240BB60F922F9310
:101FC0003F934F935F936F937F938F939F93AF93C1
:101FD000BF93EF93FF9348E251E064E271E080E049
:101FE00090E00E94950EFF91EF91BF91AF919F916C
:101FF0008F917F916F915F914F913F912F910F90B2
:102000000BBE0F900FBE0F901F9018951F920F924E
:102010000FB60F9211240BB60F922F933F934F934D
:102020005F936F937F938F939F93AF93BF93EF9340
:10203000FF9348EA50E064EA70E083E090E00E9499
:10204000950EFF91EF91BF91AF919F918F917F91ED
:102050006F915F914F913F912F910F900BBE0F9019
:102060000FBE0F901F9018951F920F920FB60F92F0
:1020700011240BB60F922F933F934F935F936F935F
:102080007F938F939F93AF93BF93EF93FF9348E911
:1020900050E064E970E082E090E00E94950EFF91CC
:1020A000EF91BF91AF919F918F917F916F915F91D0
:1020B0004F913F912F910F900BBE0F900FBE0F903D
:1020C0001F9018951F920F920FB60F9211240BB606
:1020D0000F922F933F934F935F936F937F938F93C1
:1020E0009F93AF93BF93EF93FF9348E850E064E86A
:1020F00070E081E090E00E94950EFF91EF91BF911A
:10210000AF919F918F917F916F915F914F913F918F
:102110002F910F900BBE0F900FBE0F901F90189530
:102120001F920F920FB60F9211240BB60F922F939E
:102130003F934F935F936F937F938F939F93AF934F
:10214000BF93EF93FF938091B900887F803609F4A5
:102150009CC068F5883209F45BC090F4803109F4C2
:1021600054C038F4882309F4F6C0883009F44DC00F
:10217000F6C0883109F44CC0803209F45DC0EFC06C
:10218000803409F468C048F4803309F455C08833BA
:1021900009F0E5C080930204D8C0803509F44FC02F
:1021A000883509F45DC0883409F0D9C0D6C08839B3
:1021B00009F4C7C0A8F4883709F467C038F4883632
:1021C00009F463C0803709F460C0C9C0883809F4D5
:1021D000B8C0803909F45FC0803809F0C0C05BC066
:1021E000803B09F486C038F4803A09F466C0883A26
:1021F00009F47FC0B4C0803C09F4A7C0883C09F44E
:10220000A4C0883B09F48AC0AAC08091DF0310C033
:102210009091010480910004981770F5E0910104F9
:1022200081E08E0F80930104F0E0E052FC4F80814A
:102230008093BB0085EC86C0809302048EC0E09141
:10224000010481E08E0F809301048091BB00F0E0D7
:10225000E052FC4F808390910104809100046EC095
:10226000E091010481E08E0F809301048091BB0016
:10227000F0E0E052FC4F80838091030481116DC037
:1022800081E08093DE0384EA61C083E080930404EC
:1022900010922903CFCF80912903803208F051C0DA
:1022A000E091290381E08E0F809329038091BB0088
:1022B000F0E0E75FFC4F8083BDCF85EC8093BC00EE
:1022C0001092040480912903803230F4E0912903B4
:1022D000F0E0E75FFC4F10826091290370E0E0912D
:1022E0000703F091080389E093E019951092290300
:1022F00036C084E080930404109206031092050314
:10230000E0910303F0910403199580910503811175
:1023100005C081E0809305031092E302E09106037B
:1023200081E08E0F80930603F0E0ED51FD4F808138
:102330008093BB009091060380910503981708F4E1
:1023400079CF85E88093BC000AC085EC8093BC00FF
:102350001092040404C0109202040E94670EFF91C0
:10236000EF91BF91AF919F918F917F916F915F910D
:102370004F913F912F910F900BBE0F900FBE0F907A
:102380001F90189540910503262F30E0240F311D32
:1023900021323105DCF4209104042430C9F4FC011D
:1023A00080E090E0861758F4309105032191DC011C
:1023B000AD51BD4FA30FB11D2C930196F3CF80916A
:1023C0000503680F6093050380E0089581E0089598
:1023D00082E008952F923F924F925F926F927F9288
:1023E0009F92AF92BF92CF92DF92EF92FF920F93A4
:1023F0001F93CF93DF9300D000D0CDB7DEB75C0141
:102400001A821982912C03E010E0F8EE2F2EF3E0EF
:102410003F2E892D90E0801791070CF076C00E9426
:1024200054142B013C01D501ED91FC910480F58100
:10243000E02DC5011995009719F4015011092CC020
:10244000911002C040E01FC0492D242F30E0F90157
:102450003197EE0FFF1F61E070E06C0F7D1FE60FFC
:10246000F71F608171816817790768F4220F331FA5
:10247000E1E0F0E0EC0FFD1FE20FF31F71836083DA
:10248000415019F7DFCFFE013196E40FF11DE40F43
:10249000F11D918380839394892D90E0801791079B
:1024A0000CF0B7CF0E945414D5011296CD90DC9059
:1024B0001397AB01BC014419550966097709C29C01
:1024C000C001C39C900DD29C900D1124A0E0B0E0FF
:1024D000481759076A077B0708F09BCF0E945414DE
:1024E000E12CF12C641975098609970928EE33E06F
:1024F00040E050E00E94C41FC701B601621B730B8D
:10250000840B950B0E94791484CF0E7FFE01E00F9F
:10251000F11F8181928126960FB6F894DEBF0FBE1F
:10252000CDBFDF91CF911F910F91FF90EF90DF9082
:10253000CF90BF90AF909F907F906F905F904F90A3
:102540003F902F900895FC01A089B18982E08C937F
:10255000A485B5851C92A685B7858FEC8C93108ECB
:10256000A489B58986E08C93A289B3898C91806116
:102570008C93A289B3898C9188608C93A289B3894A
:102580008C9180688C930288F389E02D80818F7D07
:102590008083089581E995E00E94EA119093F00507
:1025A0008093EF0585EA95E00E94EA119093F20589
:1025B0008093F10589EB95E00E94EA119093F40570
:1025C0008093F3058DEC95E00E945D0A6093F7051A
:1025D0007093F8058093F9059093FA0587ED95E0DF
:1025E0000E945D0A6093FB057093FC058093FD05D6
:1025F0009093FE056091E3057091E4058091E505F7
:102600009091E6050E941421CB0168E671E00E94DA
:10261000192097FF02C088599E4F9093F60580932A
:10262000F5050895382F2091280490912704213230
:1026300008F049C0809104048111FCCF42E040932E
:102640000404309303043FEF30930204109201041A
:1026500020930004A7E0B4E040EE53E0FA013E2FDF
:10266000341B321718F43D913193F9CF1092DF03E8
:102670002091DF03990F922B9093DF039091DE035B
:10268000913061F41092DE039091DF039093BB00D0
:102690009091BC0093FDF8CF95EC01C095EE90931E
:1026A000BC00909104049230E1F3909102049F3FAA
:1026B00079F080910204803241F0809102048033ED
:1026C00031F084E005C081E003C082E001C083E016
:1026D0001092060410922804109205040895CF92D7
:1026E000DF92EF92FF920F931F93CF93DF937C01C2
:1026F000262F972F8A0180910504882391F0C62FF9
:10270000D72F6E01C40ED51ECC15DD0571F0699171
:10271000D701ED91FC910190F081E02DC701199551
:10272000F3CF642F822F0E94C211C801DF91CF9195
:102730001F910F91FF90EF90DF90CF900895CF936E
:10274000DF931F92CDB7DEB7698320910504222362
:10275000D1F020912804203240F021E030E0FC014B
:102760003383228380E090E015C080910604E82F37
:10277000F0E0E95FFB4F998190838F5F80930604BF
:102780008093280405C061E0CE0101960E94C21129
:1027900081E090E00F90DF91CF91089590E0FC01EF
:1027A0003197E231F10508F04EC08827E356FF4F1C
:1027B0008F4F0C942D20809180008F7703C08091E3
:1027C00080008F7D80938000089580918000877FB6
:1027D000F9CF84B58F7702C084B58F7D84BD08950D
:1027E0008091B0008F7703C08091B0008F7D80937F
:1027F000B0000895809190008F7707C0809190007D
:102800008F7D03C080919000877F80939000089512
:102810008091A0008F7707C08091A0008F7D03C0BA
:102820008091A000877F8093A0000895809120016F
:102830008F7707C0809120018F7D03C08091200198
:10284000877F8093200108951F93CF93DF93282FD4
:1028500030E0F901E452FC4F8491F901EA56FC4F53
:10286000D491F901E05BFC4FC491CC23C9F0162F41
:1028700081110E94CE13EC2FF0E0EE0FFF1FE45EFB
:10288000FC4FA591B4918FB7F894111105C09C919C
:10289000ED2FE095E92302C0EC91ED2BEC938FBF77
:1028A000DF91CF911F9108953FB7F894809155061D
:1028B00090915606A0915706B091580626B5A89B50
:1028C00005C02F3F19F00196A11DB11D3FBFBA2FC2
:1028D000A92F982F8827820F911DA11DB11DBC0122
:1028E000CD0142E0660F771F881F991F4A95D1F7E7
:1028F00008958F929F92AF92BF92CF92DF92EF9204
:10290000FF926B017C010E9454144B015C01C114C5
:10291000D104E104F104F1F00E945414DC01CB0174
:1029200088199909AA09BB09883E9340A105B105F8
:1029300070F321E0C21AD108E108F10888EE880E90
:1029400083E0981EA11CB11CC114D104E104F10460
:1029500019F7DDCFFF90EF90DF90CF90BF90AF9051
:102960009F908F9008952FB7F894609151067091C1
:10297000520680915306909154062FBF08951F92DE
:102980000F920FB60F9211242F933F938F939F9323
:10299000AF93BF938091510690915206A091530638
:1029A000B09154063091500623E0230F2D3720F4C8
:1029B0000196A11DB11D05C026E8230F0296A11D99
:1029C000B11D209350068093510690935206A09318
:1029D0005306B09354068091550690915606A091E7
:1029E0005706B09158060196A11DB11D809355065A
:1029F00090935606A0935706B0935806BF91AF9197
:102A00009F918F913F912F910F900FBE0F901F902C
:102A10001895FC0172978AE590E0978B868B24EBE2
:102A200030E0318F208F138E128E958B848B08951A
:102A3000FC018AE590E0978B868B24EB30E0318FA8
:102A4000208F138E128E958B848B08958F929F9278
:102A5000AF92BF92CF92DF92EF92FF920F931F93AC
:102A6000CF93DF93EC01E881F9810684F785E02DAF
:102A700019952E893F89888D998D821B930B9D8F87
:102A80008C8F8A8D9B8D821B930B9F8F8E8FE881FD
:102A9000F9810284F385E02DCE0119950885198509
:102AA000B801012E000C880B990B0E94751E6B015A
:102AB0007C016A857B85601B710B072E000C880BDF
:102AC000990B0E94751E4B015C016C817D8180E039
:102AD00090E00E94731E20E030E048EC52E40E9437
:102AE000A2209B01AC01C501B4010E94D41E9B0130
:102AF000AC01C701B6010E9436200E9414217F87D5
:102B00006E878C859D85801B910BBC01990F880B6E
:102B1000990B0E94751E4B015C018E819F81BC0147
:102B200080E090E00E94731E20E030E048EC52E428
:102B30000E94A2209B01AC01C501B4010E94D41ED9
:102B40009B01AC01C701B6010E9436200E941421EE
:102B5000798B688BDF91CF911F910F91FF90EF9050
:102B6000DF90CF90BF90AF909F908F900895429745
:102B70000C942615FC01268D378D621773073CF0E7
:102B8000448D558D9B01461757070CF49A01FC01A3
:102B900046895789240F351F358B248B0C948C055F
:102BA00042970C94BA150895CF93DF93CDB7DEB753
:102BB000A3970FB6F894DEBF0FBECDBF789484B54F
:102BC000826084BD84B5816084BD85B5826085BD29
:102BD00085B5816085BD80916E00816080936E00B7
:102BE00010928100809181008260809381008091A9
:102BF000810081608093810080918000816080935A
:102C000080008091B10084608093B1008091B00019
:102C100081608093B00080919100826080939100E8
:102C200080919100816080939100809190008160FB
:102C3000809390008091A10082608093A100809198
:102C4000A10081608093A1008091A00081608093A9
:102C5000A000809121018260809321018091210157
:102C60008160809321018091200181608093200107
:102C700080917A00846080937A0080917A008260EB
:102C800080937A0080917A00816080937A008091AD
:102C90007A00806880937A001092C10082ED94E0FF
:102CA0000E94A31285E394E00E94A31284E196E0BF
:102CB0009093900580938F0540911006042E000C90
:102CC000550B60910D06062E000C770B89EB95E0F5
:102CD0000E94080A40910F06042E000C550B6091CB
:102CE0000C06062E000C770B85EA95E00E94080A78
:102CF00040910E06042E000C550B60910B06062E1B
:102D0000000C770B81E995E00E94080A609111069A
:102D1000062E000C770B8DEC95E00E94120D609151
:102D20001206062E000C770B87ED95E00E94120D1F
:102D30001092E2021092E10210920604109228040E
:102D40001092040481E0809303041092DE0361E09A
:102D500084E10E94241461E085E10E9424148091A2
:102D6000B9008E7F8093B9008091B9008D7F8093E8
:102D7000B90088E48093B80085E48093BC006FE0DC
:102D800080E20E94F30E60E081E20E94F30E68E0B0
:102D900082E20E94F30E60E383E20E94F30E60E0A1
:102DA00084E20E94F30E6CED75E080E090E00E94FA
:102DB00079140E94B3146093E9057093EA05809337
:102DC000EB059093EC0584E190E09093E805809307
:102DD000E7058091D3059091D4059C01220F331F04
:102DE000220F331FF901EC52FD4F10821182128223
:102DF0001382880F991FFC01E159FA4F808191815C
:102E00008F3F910539F0F901E453FD4F1082118293
:102E1000128213828091DD059091DE059C01220FC4
:102E2000331F220F331FF901EC52FD4F1082118224
:102E300012821382880F991FFC01E159FA4F808199
:102E400091818F3F910539F0F901E453FD4F1082D4
:102E50001182128213825FE8E52E55E0F52E009173
:102E60008F0510919005D80116968D919C9117971A
:102E7000FC01EE0FFF1FE00FF11F2DEC35E033A337
:102E800022A327ED35E035A324A3029617969C9341
:102E90008E93169781EE95E097969C938E939697D6
:102EA00081E098968C93989712968D919C911397A8
:102EB000DC01ED91FC910480F581E02D1995F8017C
:102EC00080819181DC01ED91FC910480F581E02D00
:102ED0001995F80180819181DC01ED91FC910680CA
:102EE000F781E02D60E070E01995F801828193810F
:102EF000DC01ED91FC910680F781E02D60E070E04F
:102F000019950E94CA120E94B3146093FF05709332
:102F10000006809301069093020682E895E024E182
:102F200036E03093830520938205F0928505E09288
:102F300084052091F5053091F6053093890520939D
:102F400088059093740580937305F0927605E0925E
:102F500075059093DD028093DC0283E795E0909302
:102F6000DF028093DE027CE3C72ED12CE4E12E2E1B
:102F7000312CFEE18F2E912CAAE04A2E512C612C8F
:102F8000712C7E01B0E2EB0EF11CB8E6AB2EBB2437
:102F9000B39481EE95E00E9475070E94B3140091EE
:102FA000FF05109100062091010630910206045C95
:102FB0001F4F2F4F3F4F601771078207930750F045
:102FC0006093FF05709300068093010690930206BC
:102FD0000E94CA1280911306882389F12091F1057D
:102FE0003091F205215031094091FB055091FC05CB
:102FF0006091FD057091FE058091F7059091F805AF
:10300000A091F905B091FA05840F951FA61FB71F6F
:10301000B695A795979587952E30310540F4809306
:10302000030690930406A0930506B09306068093CA
:10303000070690930806A0930906B0930A0685E355
:1030400094E00E94C002892B09F4BAC185E394E0A0
:103050000E949E02182F8093E002893309F49CC0DD
:103060008CF5843309F477C0DCF4813309F465C04E
:1030700054F4803309F0A4C1E091DC02F091DD0248
:10308000158214829DC1823309F45EC0833309F036
:1030900097C1E091DC02F091DD029582848290C1BB
:1030A000863309F466C00CF45DC0873309F468C048
:1030B000883309F085C1E091DC02F091DD0280E502
:1030C00090E067C0823509F4C9C06CF48B343CF4DD
:1030D00086340CF0C3C0823409F4C0C071C18C3492
:1030E00009F4BCC06DC1883509F466C08CF4833521
:1030F00009F066C18091DC029091DD02DC011B9633
:103100001C921B9721E01C962C930E94680D58C1BD
:10311000813709F44AC0883709F052C18091DC0236
:103120009091DD02FC0112860E94680D8091DE0202
:103130009091DF020E947A0D43C1E091DC02F09190
:10314000DD024AE050E022C0E091DC02F091DD02B5
:103150003582248235C1E091DC02F091DD0288E203
:1031600090E017C0E091DC02F091DD02A2E3B0E054
:1031700019C0E091DC02F091DD02D582C48220C149
:10318000E091DC02F091DD0246E450E05583448397
:1031900017C19583848314C1E091DC02F091DD02B4
:1031A000AAE5B0E0B583A4830BC1E091DC02F09105
:1031B000DD0244E650E0EACF8091DC029091DD022E
:1031C00011E0DC011A961C930E94680D4091DE020A
:1031D0005091DF025BA34AA3DA0118961C9318975B
:1031E00019961C9319978D919C91FC0114860E944D
:1031F0004B0DAAA1BBA112968D919C911397FC0136
:10320000EC57FF4F308131111FC01083DC01A459EE
:10321000BF4F7C974D915D916D917C9100811181A3
:1032200022813381400F511F621F731F769567956E
:10323000579547953C9640835183628373833496B8
:103240004083518362837383EAA1FBA180819181D2
:10325000DC0114966D917C91159730C08091DE024F
:103260009091DF020E947A0D8091DC029091DD0244
:10327000FC0112860E94680D812F110F990BAA0B79
:10328000BB0BFC01E254F109E131F10508F098C0F3
:103290008827EC57FF4F8F4F0C942D208091DC0234
:1032A0009091DD02DC011C961C920E944B0D8091D6
:1032B000DC029091DD02FC016481758177FF03C01F
:1032C00071956195710940E050E078C08091DC0211
:1032D0009091DD02DC011C961C920E944B0D8091A6
:1032E000DC029091DD02FC016481758177FFE8CFFB
:1032F000719561957109E4CFE091DC02F091DD02F6
:10330000138681E084876481758177FF03C071959E
:103310006195710946EA5FEF50C0E091DC02F091DF
:10332000DD02138681E084876481758177FF03C0A5
:1033300071956195710945EB5FEF3FC0E091DC024B
:10334000F091DD02138681E084876481758177FFC7
:10335000EFCF719561957109EBCFE091DC02F091AF
:10336000DD02138681E084876481758177FF03C065
:103370007195619571094AE550E01FC0E091DC024A
:10338000F091DD02138681E084876481758177FF87
:1033900012C00EC0E091DC02F091DD02138681E0E4
:1033A00084876481758177FF03C071956195710988
:1033B0007195619571094BE450E0CF010E94C10DF8
:1033C00080917B05882309F43CC180917C0588238A
:1033D00011F18091750590917605DC01A858BF4FD9
:1033E000FC01EC58FF4F8D919D910D90BC91A02D4B
:1033F0004081518162817381841B950BA60BB70BB1
:103400008897A105B10508F41CC110927C0581E0E4
:1034100080937E0516C180917E05882309F474C0CF
:103420008091750590917605DC01A858BF4FFC018D
:10343000EC58FF4F4D915D916D917C910081118110
:1034400022813381401B510B620B730B44365105B3
:103450006105710528F083E795E00E947A0DF1C0BF
:10346000FC01EE59FF4F808191810F9708F0E9C070
:1034700010927E0580917305909174050E94680DED
:1034800068EE73E080E090E00E9479140091750589
:1034900010917605F801EE5AFF4F628173818481A5
:1034A00095810E941421CB01B5010E94192097FF3C
:1034B00002C088599E4F909381058093800581E0DA
:1034C00080937D05F801E05AFF4F808191819093B0
:1034D00078058093770532968081918190937A0563
:1034E000809379058091730590917405DC011B969A
:1034F0001C921B9714966D917C91159777FF46C18E
:1035000071956195710942C180917D05882309F407
:10351000A2CF8091750590917605FC01EA59FF4F85
:10352000009180051091810520813181021B130BD0
:10353000980128593E4F0836B1E01B0709F42EC107
:103540002836E1E03E0721F00217130718F403C004
:1035500020E030E0890120917F05211159C0FC0154
:10356000EE59FF4F60817181CB010197099708F0F7
:10357000E0C019A280E090E0A30192010E94C41F64
:10358000605D68A3F70101900020E9F73197AF0172
:103590004E195F09B70182ED94E00E94470242E0B4
:1035A00050E068EB72E082ED94E00E944702809167
:1035B000730590917405DC0119961C921E92189760
:1035C0000E94B30DC80189970A97B0F481E08093F7
:1035D0007F058091730590917405FC01648175816C
:1035E00077FF03C0719561957109719561957109B6
:1035F00044EC5FEF0E94C10DE0917505F0917605F6
:10360000EC59FF4F808191810197099708F49FC081
:1036100080917F058823A9F00450110901361140DB
:1036200020F010927F0510927D05E0917505F091D4
:103630007605EC59FF4F8081918101970A9708F434
:103640009AC080918E05882361F0E0918405F09105
:103650008505EA59FF4F8081918190938905809378
:10366000880580918D05882309F460C02091880524
:1036700030918905E0918405F0918505EA59FF4F65
:1036800080819181A901481B590BCA0188599E4F1D
:10369000B5010E9419208C010097C1F1843B91056E
:1036A000BCF4E0918205F091830520E030E0A901AF
:1036B00062857385848595850E944A21181624F4B5
:1036C000053011054CF11FC00530110514F115C06E
:1036D000843B910519F1E0918205F091830520E08A
:1036E00030E0A90162857385848595850E944A2111
:1036F000181634F40436114064F423ED3FEF0EC085
:10370000043611404CF42DE230E008C020E030E0F7
:1037100005C02FEF3FEF02C021E030E030938B0572
:1037200020938A0582E895E00E94B30D0E946A0307
:1037300030CC093211050CF045CF80917305909182
:103740007405DC011996DC92CE92189739CF81E08E
:1037500080937F058091730590917405FC016481CD
:10376000758177FF03C07195619571094CE350E055
:103770000E94C10D4DCF8091730590917405DC01BD
:1037800014966D917C91159777FF03C071956195A3
:1037900071094CE350E00E94C10D53CF00E010E0EE
:1037A000DACECF92DF92EF92FF92CF93DF93109217
:1037B0002C0410922B0488EE93E0A0E0B0E08093FC
:1037C0002D0490932E04A0932F04B09330042CE189
:1037D00032E030932A042093290410923804109286
:1037E00037048093390490933A04A0933B04B09338
:1037F0003C042EE232E0309336042093350445E356
:1038000051E0509342044093410444E351E050930B
:1038100044044093430440E351E0509346044093F2
:10382000450441E351E0509348044093470442E388
:1038300051E050934A044093490446E351E05093C9
:103840004C0440934B0410924E0410924F0410927B
:103850005004109251041092D5041092D404809315
:10386000D6049093D704A093D804B093D90430938E
:10387000D3042093D20485EC90E09093DF048093EE
:10388000DE0484EC90E09093E1048093E00480EC0B
:1038900090E09093E3048093E20481EC90E09093B5
:1038A000E5048093E40482EC90E09093E704809335
:1038B000E60486EC90E09093E9048093E80410928B
:1038C000EB041092EC041092ED041092EE048CE2E2
:1038D00090E00E944F21EC011B821A821D821C8203
:1038E0001F821E82198618861B861A861D861C86D4
:1038F0001F861E86198A188A1D8A1C8A1F8A1E8A9C
:10390000198E188E1B8E1A8E1D8E1C8E1F8E1E8E6B
:103910008AE992E0998388838EEA92E09B8B8A8B76
:103920001FA21EA219A618A61BA61AA688E090E040
:1039300099A388A38AE090E09BA38AA389E090E002
:103940009DA38CA388E00E94B90F8AA10E94B90FA1
:103950008CA10E94B90F8CE090E09FA38EA38DE014
:1039600090E099A788A78BE090E09BA78AA78CE0BE
:103970000E94B90F88A50E94B90F8AA50E94B90FAD
:10398000CE010E942615209719F0CE01429602C062
:1039900080E090E010923D0610921E0610921F06E5
:1039A000109220061092210610921D0610921C06FD
:1039B00010921B0610921A0610923C0620E530E089
:1039C0003093190620931806D0931506C093140659
:1039D00090931706809316061092220610922306E3
:1039E000109224061092250680E090E0A0EAB0E450
:1039F0008093260690932706A0932806B093290665
:103A000010922A0610922B0610922C0610922D0668
:103A100080E090E0A0E2B1E480932E0690932F0620
:103A2000A0933006B09331061092320610923306FE
:103A30001092340610923506109237061092360610
:103A4000109239061092380610923B0610923A06F0
:103A500010923E0610923F061092400610924106C8
:103A600010924206109243061092440610924506A8
:103A70001092460610924706109248061092490688
:103A800010924B0610924A0610924D0610924C0668
:103A900044E552E0509392054093910528E030E0D0
:103AA000309394052093930586E490E09093A405C9
:103AB0008093A30510929505109296051092980593
:103AC0001092970510929A051092990510929C05F4
:103AD00010929B0510929E0510929D0510929F05D5
:103AE0001092A0051092A1051092A2055093A60570
:103AF0004093A5053093A8052093A7059093B8059A
:103B00008093B7051092A9051092AA051092AC05F2
:103B10001092AB051092AE051092AD051092B00553
:103B20001092AF051092B2051092B1051092B30534
:103B30001092B4051092B5051092B6055093BA05CF
:103B40004093B9053093BC052093BB059093CC05F9
:103B50008093CB051092BD051092BE051092C00552
:103B60001092BF051092C2051092C1051092C405B3
:103B70001092C3051092C6051092C5051092C70594
:103B80001092C8051092C9051092CA058CEBC82E78
:103B9000D12CE12CF12CC092CD05D092CE05E09233
:103BA000CF05F092D00520914E0630914F06C90105
:103BB00001963093D4052093D30565E070E07093AF
:103BC000D6056093D5051092D2051092D105F90162
:103BD000EE0FFF1FE159FA4F4FEF50E05183408342
:103BE000C092D705D092D805E092D905F092DA05B7
:103BF0002E5F3F4F30934F0620934E069093DE0585
:103C00008093DD057093E0056093DF051092DC057D
:103C10001092DB05880F991FFC01E159FA4F51837F
:103C200040831092E3051092E4051092E50510928E
:103C3000E60588E692E09093E2058093E10586E14F
:103C400090E09093EE058093ED051092E8051092B8
:103C5000E7051092E9051092EA051092EB05109223
:103C6000EC058CE280930B0686E080930C0685E0E1
:103C700080930D068AE280930E0687E080930F06FC
:103C800084E08093100682E08093110683E08093A5
:103C90001206109213061092870510928605109254
:103CA00089051092880510928B0510928A05109252
:103CB0008C0510928D0510928E0510927B05109246
:103CC0007C0510927D0510927E0510927F05DF9194
:103CD000CF91FF90EF90DF90CF9008950E94B01E9B
:103CE00008F481E00895E89409C097FB3EF49095AC
:103CF0008095709561957F4F8F4F9F4F9923A9F0C5
:103D0000F92F96E9BB279395F69587957795679553
:103D1000B795F111F8CFFAF4BB0F11F460FF1BC097
:103D20006F5F7F4F8F4F9F4F16C0882311F096E92A
:103D300011C0772321F09EE8872F762F05C06623D8
:103D400071F096E8862F70E060E02AF09A95660F91
:103D5000771F881FDAF7880F9695879597F908954A
:103D6000990F0008550FAA0BE0E8FEEF161617068C
:103D7000E807F907C0F012161306E407F50798F0F4
:103D8000621B730B840B950B39F40A2661F0232B0D
:103D9000242B252B21F408950A2609F4A140A69589
:103DA0008FEF811D811D08950E94E71E0C94581FFE
:103DB0000E944A1F38F00E94511F20F0952311F0F5
:103DC0000C94411F0C94471F11240C948C1F0E94CB
:103DD000691F70F3959FC1F3950F50E0551F629FC7
:103DE000F001729FBB27F00DB11D639FAA27F00D54
:103DF000B11DAA1F649F6627B00DA11D661F829F7B
:103E00002227B00DA11D621F739FB00DA11D621F5F
:103E1000839FA00D611D221F749F3327A00D611D7C
:103E2000231F849F600D211D822F762F6A2F11245E
:103E30009F5750409AF0F1F088234AF0EE0FFF1F91
:103E4000BB1F661F771F881F91505040A9F79E3FE8
:103E5000510580F00C94411F0C948C1F5F3FE4F3DC
:103E6000983ED4F3869577956795B795F795E7953E
:103E70009F5FC1F7FE2B880F911D9695879597F947
:103E8000089597F99F6780E870E060E008959FEFDC
:103E900080EC089500240A941616170618060906E1
:103EA000089500240A9412161306140605060895B0
:103EB000092E0394000C11F4882352F0BB0F40F438
:103EC000BF2B11F460FF04C06F5F7F4F8F4F9F4F78
:103ED000089557FD9058440F551F59F05F3F71F0FA
:103EE0004795880F97FB991F61F09F3F79F0879561
:103EF0000895121613061406551FF2CF4695F1DFEA
:103F000008C0161617061806991FF1CF8695710579
:103F1000610508940895E894BB2766277727CB01AD
:103F200097F90895052E97FB1EF400940E94A91F8F
:103F300057FD07D00E94C41F07FC03D04EF40C9419
:103F4000A91F50954095309521953F4F4F4F5F4F9A
:103F5000089590958095709561957F4F8F4F9F4FF5
:103F600008950E94E61FA59F900DB49F900DA49FF9
:103F7000800D911D11240895B7FF0C94B11F0E946C
:103F8000B11F821B930B0895A1E21A2EAA1BBB1B23
:103F9000FD010DC0AA1FBB1FEE1FFF1FA217B30715
:103FA000E407F50720F0A21BB30BE40BF50B661F2B
:103FB000771F881F991F1A9469F7609570958095EF
:103FC00090959B01AC01BD01CF010895A29FB00166
:103FD000B39FC001A39F700D811D1124911DB29F3D
:103FE000700D811D1124911D0895DB018F939F9306
:103FF0000E94B11FBF91AF91A29F800D911DA39F01
:10400000900DB29F900D11240895AA1BBB1B51E186
:1040100007C0AA1FBB1FA617B70710F0A61BB70B38
:10402000881F991F5A95A9F780959095BC01CD01DD
:10403000089597FB072E16F4009407D077FD09D05A
:104040000E94052007FC05D03EF4909581959F4F76
:104050000895709561957F4F0895EE0FFF1F881F9B
:104060008BBF0790F691E02D19945058BB27AA27D3
:104070000E944D200C94581F0E944A1F38F00E9445
:10408000511F20F039F49F3F19F426F40C94471F78
:104090000EF4E095E7FB0C94411FE92F0E94691F85
:1040A00058F3BA17620773078407950720F079F46D
:1040B000A6F50C948B1F0EF4E0950B2EBA2FA02DB5
:1040C0000B01B90190010C01CA01A0011124FF27C5
:1040D000591B99F0593F50F4503E68F11A16F040C0
:1040E000A22F232F342F4427585FF3CF46953795BF
:1040F0002795A795F0405395C9F77EF41F16BA0B84
:10410000620B730B840BBAF09150A1F0FF0FBB1F31
:10411000661F771F881FC2F70EC0BA0F621F731F7A
:10412000841F48F4879577956795B795F7959E3FD7
:1041300008F0B0CF9395880F08F09927EE0F979568
:10414000879508950E94B6200C94581F0E94511F15
:1041500058F00E944A1F40F029F45F3F29F00C9468
:10416000411F51110C948C1F0C94471F0E94691F12
:1041700068F39923B1F3552391F3951B550BBB2796
:10418000AA2762177307840738F09F5F5F4F220FDB
:10419000331F441FAA1FA9F335D00E2E3AF0E0E8D2
:1041A00032D091505040E695001CCAF72BD0FE2F1C
:1041B00029D0660F771F881FBB1F261737074807B0
:1041C000AB07B0E809F0BB0B802DBF01FF27935868
:1041D0005F4F3AF09E3F510578F00C94411F0C94CC
:1041E0008C1F5F3FE4F3983ED4F3869577956795EF
:1041F000B795F7959F5FC9F7880F911D969587959D
:1042000097F90895E1E0660F771F881FBB1F6217BB
:1042100073078407BA0720F0621B730B840BBA0B79
:10422000EE1F88F7E09508950E941B216894B11154
:104230000C948C1F08950E94711F88F09F5798F06E
:10424000B92F9927B751B0F0E1F0660F771F881F9B
:10425000991F1AF0BA95C9F714C0B13091F00E94B5
:104260008B1FB1E008950C948B1F672F782F882740
:10427000B85F39F0B93FCCF3869577956795B395DC
:10428000D9F73EF490958095709561957F4F8F4F4B
:104290009F4F08950E94B01E08F48FEF0895CF93AA
:1042A000DF938230910510F482E090E0E0915B06AC
:1042B000F0915C0620E030E0C0E0D0E0309711F1F2
:1042C0004081518148175907C0F04817590761F4D8
:1042D00082819381209719F09B838A832BC09093CE
:1042E0005C0680935B0626C02115310519F0421744
:1042F000530718F49A01BE01DF01EF010280F38138
:10430000E02DDCCF2115310509F1281B390B2430B4
:10431000310590F412968D919C911397611571055A
:1043200021F0FB019383828304C090935C06809309
:104330005B06FD01329644C0FD01E20FF31F81933D
:104340009193225031092D933C933AC02091590604
:1043500030915A06232B41F420911202309113021E
:1043600030935A0620935906209110023091110281
:104370002115310541F42DB73EB7409114025091FB
:104380001502241B350BE0915906F0915A06E217ED
:10439000F307A0F42E1B3F0B2817390778F0AC0168
:1043A0004E5F5F4F2417350748F04E0F5F1F509345
:1043B0005A06409359068193919302C0E0E0F0E0E1
:1043C000CF01DF91CF9108950F931F93CF93DF9388
:1043D000009709F48CC0FC0132971382128200917D
:1043E0005B0610915C060115110581F42081318175
:1043F000820F931F2091590630915A0628173907CA
:1044000079F5F0935A06E093590671C0D80140E05F
:1044100050E0AE17BF0750F412962D913C911397C0
:10442000AD012115310509F1D901F3CF9D01DA0163
:104430003383228360817181860F971F82179307D0
:1044400069F4EC0128813981260F371F2E5F3F4F19
:10445000318320838A819B8193838283452B29F436
:10446000F0935C06E0935B0642C01396FC93EE93D8
:104470001297ED01499159919E01240F351FE217C2
:10448000F30771F480819181840F951F0296119634
:104490009C938E938281938113969C938E93129713
:1044A000E0E0F0E0D80112968D919C91139700976F
:1044B00019F0F8018C01F6CF8D919C9198012E5F37
:1044C0003F4F820F931F2091590630915A062817AB
:1044D000390769F4309729F410925C0610925B0654
:1044E00002C01382128210935A0600935906DF917C
:1044F000CF911F910F91089581E090E0F8940C9472
:10450000812212E0C2E1D2E000E006C0802FFE016D
:104510000E942D202196011DC331D10780E008079C
:06452000A9F7F894FFCF9B
:104526004602460246024602460246024602460245
:1045360000005D0620000000000000009F136F13BE
:104546008C02710E5F0E810E720E000000000103D8
:1045560047028F024803C0029E02B202000000001A
:1045660000000000430400000000000000004304B7
:10457600000000004A0D4D04440600000000480DEE
:104586004B04230400000000490D4F04750700008A
:104596000000FF0947049F030C040A040B040000F3
:1045A6000000FE0945049F0300000000000A4904BC
:1045B6009F030E040D0400000000010A020A2615DE
:1045C600380649050F04BA151815EEFF0000070A4C
:0C45D600040AB715D01509150D0A0000E5
:00000001FF
